{
  "transactions": [
    {
      "hash": "0xfd33ca71b430a4e3b978aff31ea116b1a6f857c4021a9122243feec8a4f0f581",
      "transactionType": "CREATE",
      "contractName": "MockERC20",
      "contractAddress": "0x2272b955e9828acba482133dd634493ff2aefd4b",
      "function": null,
      "arguments": null,
      "transaction": {
        "type": "0x02",
        "from": "0xb3f204a5f3dabef6be51015fd57e307080db6498",
        "gas": "0xee8fa",
        "value": "0x0",
        "data": "0x60806040523480156200001157600080fd5b506040518060400160405280601381526020017f436f6d6d756e69747956616c7565546f6b656e000000000000000000000000008152506040518060400160405280600381526020016210d59560ea1b8152508160039081620000759190620002ad565b506004620000848282620002ad565b5050600580546001600160a01b0319163017905550620000b46105396c7e37be2022c0914b26800000006200013e565b620000cb606369be951906eba2aa8000006200013e565b620000e36101a569be951906eba2aa8000006200013e565b6200010d73b3f204a5f3dabef6be51015fd57e307080db649869130ffe755d99581000006200013e565b62000138739e13201c6d7c5666a7e93390870006ea0f994c626aa56d88b53d95f4299000006200013e565b620003a0565b6001600160a01b038216620001995760405162461bcd60e51b815260206004820152601f60248201527f45524332303a206d696e7420746f20746865207a65726f206164647265737300604482015260640160405180910390fd5b8060026000828254620001ad919062000379565b90915550506001600160a01b038216600081815260208181526040808320805486019055518481527fddf252ad1be2c89b69c2b068fc378daa952ba7f163c4a11628f55a4df523b3ef910160405180910390a35050565b505050565b634e487b7160e01b600052604160045260246000fd5b600181811c908216806200023457607f821691505b6020821081036200025557634e487b7160e01b600052602260045260246000fd5b50919050565b601f8211156200020457600081815260208120601f850160051c81016020861015620002845750805b601f850160051c820191505b81811015620002a55782815560010162000290565b505050505050565b81516001600160401b03811115620002c957620002c962000209565b620002e181620002da84546200021f565b846200025b565b602080601f831160018114620003195760008415620003005750858301515b600019600386901b1c1916600185901b178555620002a5565b600085815260208120601f198616915b828110156200034a5788860151825594840194600190910190840162000329565b5085821015620003695787850151600019600388901b60f8161c191681555b5050505050600190811b01905550565b600082198211156200039b57634e487b7160e01b600052601160045260246000fd5b500190565b61089280620003b06000396000f3fe608060405234801561001057600080fd5b50600436106100b45760003560e01c806370a082311161007157806370a082311461014157806370c07db71461016a57806395d89b4114610195578063a457c2d71461019d578063a9059cbb146101b0578063dd62ed3e146101c357600080fd5b806306fdde03146100b9578063095ea7b3146100d757806318160ddd146100fa57806323b872dd1461010c578063313ce5671461011f578063395093511461012e575b600080fd5b6100c16101d6565b6040516100ce91906106d0565b60405180910390f35b6100ea6100e5366004610741565b610268565b60405190151581526020016100ce565b6002545b6040519081526020016100ce565b6100ea61011a36600461076b565b610280565b604051601281526020016100ce565b6100ea61013c366004610741565b6102a4565b6100fe61014f3660046107a7565b6001600160a01b031660009081526020819052604090205490565b60055461017d906001600160a01b031681565b6040516001600160a01b0390911681526020016100ce565b6100c16102c6565b6100ea6101ab366004610741565b6102d5565b6100ea6101be366004610741565b610355565b6100fe6101d13660046107c9565b610363565b6060600380546101e5906107fc565b80601f0160208091040260200160405190810160405280929190818152602001828054610211906107fc565b801561025e5780601f106102335761010080835404028352916020019161025e565b820191906000526020600020905b81548152906001019060200180831161024157829003601f168201915b5050505050905090565b60003361027681858561038e565b5060019392505050565b60003361028e8582856104b2565b61029985858561052c565b506001949350505050565b6000336102768185856102b78383610363565b6102c19190610836565b61038e565b6060600480546101e5906107fc565b600033816102e38286610363565b9050838110156103485760405162461bcd60e51b815260206004820152602560248201527f45524332303a2064656372656173656420616c6c6f77616e63652062656c6f77604482015264207a65726f60d81b60648201526084015b60405180910390fd5b610299828686840361038e565b60003361027681858561052c565b6001600160a01b03918216600090815260016020908152604080832093909416825291909152205490565b6001600160a01b0383166103f05760405162461bcd60e51b8152602060048201526024808201527f45524332303a20617070726f76652066726f6d20746865207a65726f206164646044820152637265737360e01b606482015260840161033f565b6001600160a01b0382166104515760405162461bcd60e51b815260206004820152602260248201527f45524332303a20617070726f766520746f20746865207a65726f206164647265604482015261737360f01b606482015260840161033f565b6001600160a01b0383811660008181526001602090815260408083209487168084529482529182902085905590518481527f8c5be1e5ebec7d5bd14f71427d1e84f3dd0314c0f7b2291e5b200ac8c7c3b925910160405180910390a3505050565b60006104be8484610363565b9050600019811461052657818110156105195760405162461bcd60e51b815260206004820152601d60248201527f45524332303a20696e73756666696369656e7420616c6c6f77616e6365000000604482015260640161033f565b610526848484840361038e565b50505050565b6001600160a01b0383166105905760405162461bcd60e51b815260206004820152602560248201527f45524332303a207472616e736665722066726f6d20746865207a65726f206164604482015264647265737360d81b606482015260840161033f565b6001600160a01b0382166105f25760405162461bcd60e51b815260206004820152602360248201527f45524332303a207472616e7366657220746f20746865207a65726f206164647260448201526265737360e81b606482015260840161033f565b6001600160a01b0383166000908152602081905260409020548181101561066a5760405162461bcd60e51b815260206004820152602660248201527f45524332303a207472616e7366657220616d6f756e7420657863656564732062604482015265616c616e636560d01b606482015260840161033f565b6001600160a01b03848116600081815260208181526040808320878703905593871680835291849020805487019055925185815290927fddf252ad1be2c89b69c2b068fc378daa952ba7f163c4a11628f55a4df523b3ef910160405180910390a3610526565b600060208083528351808285015260005b818110156106fd578581018301518582016040015282016106e1565b8181111561070f576000604083870101525b50601f01601f1916929092016040019392505050565b80356001600160a01b038116811461073c57600080fd5b919050565b6000806040838503121561075457600080fd5b61075d83610725565b946020939093013593505050565b60008060006060848603121561078057600080fd5b61078984610725565b925061079760208501610725565b9150604084013590509250925092565b6000602082840312156107b957600080fd5b6107c282610725565b9392505050565b600080604083850312156107dc57600080fd5b6107e583610725565b91506107f360208401610725565b90509250929050565b600181811c9082168061081057607f821691505b60208210810361083057634e487b7160e01b600052602260045260246000fd5b50919050565b6000821982111561085757634e487b7160e01b600052601160045260246000fd5b50019056fea2646970667358221220bd1dba0811cd959af0e51e9c403a2d1a59f386a8406c28c98b4948cce698b75b64736f6c634300080f0033",
        "nonce": "0x20",
        "accessList": []
      },
      "additionalContracts": []
    },
    {
      "hash": "0x3a4bded8e268139cb332cf03320637f6a3e9d4d5ecc627187456559ebe9934da",
      "transactionType": "CREATE",
      "contractName": "Mock721",
      "contractAddress": "0xc3ca3b422047fe48e7eb904743f72845d18167c9",
      "function": null,
      "arguments": null,
      "transaction": {
        "type": "0x02",
        "from": "0xb3f204a5f3dabef6be51015fd57e307080db6498",
        "gas": "0x1ca222",
        "value": "0x0",
        "data": "0x60806040523480156200001157600080fd5b506040518060400160405280600c81526020016b0c5b4c8814d8dbdd1b185b9960a21b81525060405180604001604052806004815260200163131bdc9960e21b8152508160009081620000659190620003d7565b506001620000748282620003d7565b505061092960068190556200008e91506105399062000199565b620000ab60636006546001620000a59190620004a3565b62000199565b620000c36101a56006546002620000a59190620004a3565b620000e0600080516020620015f48339815191526102bd62000199565b62000102739e13201c6d7c5666a7e93390870006ea0f994c626102c362000199565b6200011f600080516020620015f483398151915261045762000199565b6200013c600080516020620015f48339815191526108ae62000199565b62000159600080516020620015f4833981519152610d0562000199565b62000176600080516020620015f483398151915261115c62000199565b62000193600080516020620015f48339815191526115b362000199565b620004ca565b6001600160a01b038216620001f55760405162461bcd60e51b815260206004820181905260248201527f4552433732313a206d696e7420746f20746865207a65726f206164647265737360448201526064015b60405180910390fd5b6000818152600260205260409020546001600160a01b0316156200025c5760405162461bcd60e51b815260206004820152601c60248201527f4552433732313a20746f6b656e20616c7265616479206d696e746564000000006044820152606401620001ec565b6000818152600260205260409020546001600160a01b031615620002c35760405162461bcd60e51b815260206004820152601c60248201527f4552433732313a20746f6b656e20616c7265616479206d696e746564000000006044820152606401620001ec565b6001600160a01b038216600081815260036020908152604080832080546001019055848352600290915280822080546001600160a01b0319168417905551839291907fddf252ad1be2c89b69c2b068fc378daa952ba7f163c4a11628f55a4df523b3ef908290a45050565b505050565b634e487b7160e01b600052604160045260246000fd5b600181811c908216806200035e57607f821691505b6020821081036200037f57634e487b7160e01b600052602260045260246000fd5b50919050565b601f8211156200032e57600081815260208120601f850160051c81016020861015620003ae5750805b601f850160051c820191505b81811015620003cf57828155600101620003ba565b505050505050565b81516001600160401b03811115620003f357620003f362000333565b6200040b8162000404845462000349565b8462000385565b602080601f8311600181146200044357600084156200042a5750858301515b600019600386901b1c1916600185901b178555620003cf565b600085815260208120601f198616915b82811015620004745788860151825594840194600190910190840162000453565b5085821015620004935787850151600019600388901b60f8161c191681555b5050505050600190811b01905550565b60008219821115620004c557634e487b7160e01b600052601160045260246000fd5b500190565b61111a80620004da6000396000f3fe608060405234801561001057600080fd5b50600436106100ea5760003560e01c806370a082311161008c578063a5c42ef111610066578063a5c42ef1146101e1578063b88d4fde146101ea578063c87b56dd146101fd578063e985e9c51461021057600080fd5b806370a08231146101a557806395d89b41146101c6578063a22cb465146101ce57600080fd5b8063095ea7b3116100c8578063095ea7b31461015757806323b872dd1461016c57806342842e0e1461017f5780636352211e1461019257600080fd5b806301ffc9a7146100ef57806306fdde0314610117578063081812fc1461012c575b600080fd5b6101026100fd366004610c9e565b61024c565b60405190151581526020015b60405180910390f35b61011f61029e565b60405161010e9190610d13565b61013f61013a366004610d26565b610330565b6040516001600160a01b03909116815260200161010e565b61016a610165366004610d5b565b610357565b005b61016a61017a366004610d85565b610471565b61016a61018d366004610d85565b6104a2565b61013f6101a0366004610d26565b6104bd565b6101b86101b3366004610dc1565b61051d565b60405190815260200161010e565b61011f6105a3565b61016a6101dc366004610ddc565b6105b2565b6101b860065481565b61016a6101f8366004610e2e565b6105c1565b61011f61020b366004610d26565b6105f9565b61010261021e366004610f0a565b6001600160a01b03918216600090815260056020908152604080832093909416825291909152205460ff1690565b60006001600160e01b031982166380ac58cd60e01b148061027d57506001600160e01b03198216635b5e139f60e01b145b8061029857506301ffc9a760e01b6001600160e01b03198316145b92915050565b6060600080546102ad90610f3d565b80601f01602080910402602001604051908101604052809291908181526020018280546102d990610f3d565b80156103265780601f106102fb57610100808354040283529160200191610326565b820191906000526020600020905b81548152906001019060200180831161030957829003601f168201915b5050505050905090565b600061033b8261066d565b506000908152600460205260409020546001600160a01b031690565b6000610362826104bd565b9050806001600160a01b0316836001600160a01b0316036103d45760405162461bcd60e51b815260206004820152602160248201527f4552433732313a20617070726f76616c20746f2063757272656e74206f776e656044820152603960f91b60648201526084015b60405180910390fd5b336001600160a01b03821614806103f057506103f0813361021e565b6104625760405162461bcd60e51b815260206004820152603d60248201527f4552433732313a20617070726f76652063616c6c6572206973206e6f7420746f60448201527f6b656e206f776e6572206f7220617070726f76656420666f7220616c6c00000060648201526084016103cb565b61046c83836106cf565b505050565b61047b338261073d565b6104975760405162461bcd60e51b81526004016103cb90610f77565b61046c8383836107bc565b61046c838383604051806020016040528060008152506105c1565b6000818152600260205260408120546001600160a01b0316806102985760405162461bcd60e51b8152602060048201526018602482015277115490cdcc8c4e881a5b9d985b1a59081d1bdad95b88125160421b60448201526064016103cb565b60006001600160a01b0382166105875760405162461bcd60e51b815260206004820152602960248201527f4552433732313a2061646472657373207a65726f206973206e6f7420612076616044820152683634b21037bbb732b960b91b60648201526084016103cb565b506001600160a01b031660009081526003602052604090205490565b6060600180546102ad90610f3d565b6105bd338383610920565b5050565b6105cb338361073d565b6105e75760405162461bcd60e51b81526004016103cb90610f77565b6105f3848484846109ee565b50505050565b60606106048261066d565b600061061b60408051602081019091526000815290565b9050600081511161063b5760405180602001604052806000815250610666565b8061064584610a21565b604051602001610656929190610fc4565b6040516020818303038152906040525b9392505050565b6000818152600260205260409020546001600160a01b03166106cc5760405162461bcd60e51b8152602060048201526018602482015277115490cdcc8c4e881a5b9d985b1a59081d1bdad95b88125160421b60448201526064016103cb565b50565b600081815260046020526040902080546001600160a01b0319166001600160a01b0384169081179091558190610704826104bd565b6001600160a01b03167f8c5be1e5ebec7d5bd14f71427d1e84f3dd0314c0f7b2291e5b200ac8c7c3b92560405160405180910390a45050565b600080610749836104bd565b9050806001600160a01b0316846001600160a01b0316148061079057506001600160a01b0380821660009081526005602090815260408083209388168352929052205460ff165b806107b45750836001600160a01b03166107a984610330565b6001600160a01b0316145b949350505050565b826001600160a01b03166107cf826104bd565b6001600160a01b0316146107f55760405162461bcd60e51b81526004016103cb90610ff3565b6001600160a01b0382166108575760405162461bcd60e51b8152602060048201526024808201527f4552433732313a207472616e7366657220746f20746865207a65726f206164646044820152637265737360e01b60648201526084016103cb565b826001600160a01b031661086a826104bd565b6001600160a01b0316146108905760405162461bcd60e51b81526004016103cb90610ff3565b600081815260046020908152604080832080546001600160a01b03199081169091556001600160a01b0387811680865260038552838620805460001901905590871680865283862080546001019055868652600290945282852080549092168417909155905184937fddf252ad1be2c89b69c2b068fc378daa952ba7f163c4a11628f55a4df523b3ef91a4505050565b816001600160a01b0316836001600160a01b0316036109815760405162461bcd60e51b815260206004820152601960248201527f4552433732313a20617070726f766520746f2063616c6c65720000000000000060448201526064016103cb565b6001600160a01b03838116600081815260056020908152604080832094871680845294825291829020805460ff191686151590811790915591519182527f17307eab39ab6107e8899845ad3d59bd9653f200f220920489ca2b5937696c31910160405180910390a3505050565b6109f98484846107bc565b610a0584848484610b87565b6105f35760405162461bcd60e51b81526004016103cb90611038565b606060018272184f03e93ff9f4daa797ed6e38ed64bf6a1f0160401b8110610a64576040919091019072184f03e93ff9f4daa797ed6e38ed64bf6a1f0160401b90045b6d04ee2d6d415b85acef81000000008110610a9257602091909101906d04ee2d6d415b85acef810000000090045b662386f26fc100008110610ab25760109190910190662386f26fc1000090045b6305f5e1008110610acc57600891909101906305f5e10090045b6127108110610ae2576004919091019061271090045b60648110610af65760029190910190606490045b600a8110610b05576001820191505b60008267ffffffffffffffff811115610b2057610b20610e18565b6040519080825280601f01601f191660200182016040528015610b4a576020820181803683370190505b5090508281016020015b600019016f181899199a1a9b1b9c1cb0b131b232b360811b600a87061a8153600a8604955085610b545750949350505050565b60006001600160a01b0384163b15610c7d57604051630a85bd0160e11b81526001600160a01b0385169063150b7a0290610bcb90339089908890889060040161108a565b6020604051808303816000875af1925050508015610c06575060408051601f3d908101601f19168201909252610c03918101906110c7565b60015b610c63573d808015610c34576040519150601f19603f3d011682016040523d82523d6000602084013e610c39565b606091505b508051600003610c5b5760405162461bcd60e51b81526004016103cb90611038565b805181602001fd5b6001600160e01b031916630a85bd0160e11b1490506107b4565b506001949350505050565b6001600160e01b0319811681146106cc57600080fd5b600060208284031215610cb057600080fd5b813561066681610c88565b60005b83811015610cd6578181015183820152602001610cbe565b838111156105f35750506000910152565b60008151808452610cff816020860160208601610cbb565b601f01601f19169290920160200192915050565b6020815260006106666020830184610ce7565b600060208284031215610d3857600080fd5b5035919050565b80356001600160a01b0381168114610d5657600080fd5b919050565b60008060408385031215610d6e57600080fd5b610d7783610d3f565b946020939093013593505050565b600080600060608486031215610d9a57600080fd5b610da384610d3f565b9250610db160208501610d3f565b9150604084013590509250925092565b600060208284031215610dd357600080fd5b61066682610d3f565b60008060408385031215610def57600080fd5b610df883610d3f565b915060208301358015158114610e0d57600080fd5b809150509250929050565b634e487b7160e01b600052604160045260246000fd5b60008060008060808587031215610e4457600080fd5b610e4d85610d3f565b9350610e5b60208601610d3f565b925060408501359150606085013567ffffffffffffffff80821115610e7f57600080fd5b818701915087601f830112610e9357600080fd5b813581811115610ea557610ea5610e18565b604051601f8201601f19908116603f01168101908382118183101715610ecd57610ecd610e18565b816040528281528a6020848701011115610ee657600080fd5b82602086016020830137600060208483010152809550505050505092959194509250565b60008060408385031215610f1d57600080fd5b610f2683610d3f565b9150610f3460208401610d3f565b90509250929050565b600181811c90821680610f5157607f821691505b602082108103610f7157634e487b7160e01b600052602260045260246000fd5b50919050565b6020808252602d908201527f4552433732313a2063616c6c6572206973206e6f7420746f6b656e206f776e6560408201526c1c881bdc88185c1c1c9bdd9959609a1b606082015260800190565b60008351610fd6818460208801610cbb565b835190830190610fea818360208801610cbb565b01949350505050565b60208082526025908201527f4552433732313a207472616e736665722066726f6d20696e636f72726563742060408201526437bbb732b960d91b606082015260800190565b60208082526032908201527f4552433732313a207472616e7366657220746f206e6f6e20455243373231526560408201527131b2b4bb32b91034b6b83632b6b2b73a32b960711b606082015260800190565b6001600160a01b03858116825284166020820152604081018390526080606082018190526000906110bd90830184610ce7565b9695505050505050565b6000602082840312156110d957600080fd5b815161066681610c8856fea26469706673582212209267e6d1c7bc483a54eac1ff0bf640d12537c2a96b975749b7dc4418053f758464736f6c634300080f0033000000000000000000000000b3f204a5f3dabef6be51015fd57e307080db6498",
        "nonce": "0x21",
        "accessList": []
      },
      "additionalContracts": []
    },
    {
      "hash": "0xef6125e66946b17393ffd671651995797095cb78022de8a6174d7198ebded686",
      "transactionType": "CREATE",
      "contractName": "MockERC20",
      "contractAddress": "0x2272b955e9828acba482133dd634493ff2aefd4b",
      "function": "approve(address,uint256):(bool)",
      "arguments": [
        "85bd8246ea54b20d18a582b4c5400833a04c926e",
        "244d0449a9e7e1a728080000"
      ],
      "transaction": {
        "type": "0x02",
        "from": "0xb3f204a5f3dabef6be51015fd57e307080db6498",
        "to": "0x2272b955e9828acba482133dd634493ff2aefd4b",
        "gas": "0xf9d5",
        "value": "0x0",
        "data": "0x095ea7b300000000000000000000000085bd8246ea54b20d18a582b4c5400833a04c926e0000000000000000000000000000000000000000244d0449a9e7e1a728080000",
        "nonce": "0x22",
        "accessList": []
      },
      "additionalContracts": []
    },
    {
      "hash": "0x3a810a30fc90d9a0e707d991c16be999a605af8db24c053d4a53b82e3eafb630",
      "transactionType": "CREATE",
      "contractName": "Mock721",
      "contractAddress": "0xc3ca3b422047fe48e7eb904743f72845d18167c9",
      "function": "approve(address,uint256)",
      "arguments": [
        "85bd8246ea54b20d18a582b4c5400833a04c926e",
        "457"
      ],
      "transaction": {
        "type": "0x02",
        "from": "0xb3f204a5f3dabef6be51015fd57e307080db6498",
        "to": "0xc3ca3b422047fe48e7eb904743f72845d18167c9",
        "gas": "0x11664",
        "value": "0x0",
        "data": "0x095ea7b300000000000000000000000085bd8246ea54b20d18a582b4c5400833a04c926e0000000000000000000000000000000000000000000000000000000000000457",
        "nonce": "0x23",
        "accessList": []
      },
      "additionalContracts": []
    },
    {
      "hash": "0x5d25baa82bc981d2548a3aec1028478b4ca93b38dca5698b6b214a453a4e6527",
      "transactionType": "CREATE",
      "contractName": "Mock721",
      "contractAddress": "0xc3ca3b422047fe48e7eb904743f72845d18167c9",
      "function": "approve(address,uint256)",
      "arguments": [
        "85bd8246ea54b20d18a582b4c5400833a04c926e",
        "8ae"
      ],
      "transaction": {
        "type": "0x02",
        "from": "0xb3f204a5f3dabef6be51015fd57e307080db6498",
        "to": "0xc3ca3b422047fe48e7eb904743f72845d18167c9",
        "gas": "0x11664",
        "value": "0x0",
        "data": "0x095ea7b300000000000000000000000085bd8246ea54b20d18a582b4c5400833a04c926e00000000000000000000000000000000000000000000000000000000000008ae",
        "nonce": "0x24",
        "accessList": []
      },
      "additionalContracts": []
    },
    {
      "hash": "0xcb38b18951fd49a61b721caa460f0ebce950f10669f35f0233730f4217be91eb",
      "transactionType": "CREATE",
      "contractName": "Mock721",
      "contractAddress": "0xc3ca3b422047fe48e7eb904743f72845d18167c9",
      "function": "approve(address,uint256)",
      "arguments": [
        "85bd8246ea54b20d18a582b4c5400833a04c926e",
        "d05"
      ],
      "transaction": {
        "type": "0x02",
        "from": "0xb3f204a5f3dabef6be51015fd57e307080db6498",
        "to": "0xc3ca3b422047fe48e7eb904743f72845d18167c9",
        "gas": "0x11664",
        "value": "0x0",
        "data": "0x095ea7b300000000000000000000000085bd8246ea54b20d18a582b4c5400833a04c926e0000000000000000000000000000000000000000000000000000000000000d05",
        "nonce": "0x25",
        "accessList": []
      },
      "additionalContracts": []
    },
    {
      "hash": "0xd3f3e197808ed40c2dcfa4f046042400c184ab13d5e08a1a5b481bdd3c5573e7",
      "transactionType": "CREATE",
      "contractName": null,
      "contractAddress": "0x85bd8246ea54b20d18a582b4c5400833a04c926e",
      "function": null,
      "arguments": null,
      "transaction": {
        "type": "0x02",
        "from": "0xb3f204a5f3dabef6be51015fd57e307080db6498",
        "to": "0x85bd8246ea54b20d18a582b4c5400833a04c926e",
        "gas": "0x35452",
        "value": "0x0",
        "data": "0x408d88290000000000000000000000002272b955e9828acba482133dd634493ff2aefd4b00000000000000000000000000000000000000000000000000000000000000010000000000000000000000000000000000000000000000001bc16d674ec800000000000000000000000000000000000000000000000000000000000000000000",
        "nonce": "0x26",
        "accessList": []
      },
      "additionalContracts": []
    },
    {
      "hash": "0xdbea176c52fc725036d283177d9e498c061c30511b1b9d9474d33fe8ba95f1ed",
      "transactionType": "CREATE",
      "contractName": null,
      "contractAddress": "0x85bd8246ea54b20d18a582b4c5400833a04c926e",
      "function": null,
      "arguments": null,
      "transaction": {
        "type": "0x02",
        "from": "0xb3f204a5f3dabef6be51015fd57e307080db6498",
        "to": "0x85bd8246ea54b20d18a582b4c5400833a04c926e",
        "gas": "0xa3da4",
        "value": "0x0",
        "data": "0x84fdcccf00000000000000000000000000000000000000000000000000000000000000a0000000000000000000000000bd1302ce69e65caa2c85bb686a27437eae00c6fd0000000000000000000000000000000000000000000000000000000000000180000000000000000000000000000000000000000000000000000000006321f3480000000000000000000000000000000000000000000000000000000063537710000000000000000000000000bd1302ce69e65caa2c85bb686a27437eae00c6fd0000000000000000000000000000000000000000000000000000000000000000000000000000000000000000000000000000000000000000000000000000006000000000000000000000000000000000000000000000000000000000000000415133e4fd636b3a21333a2cfd561d3028bd8b6b5c2780a58f016f679ff42ff43458cdc60cbbbbf1b34f4ad3c154d3cbca7d256debf63f881631acf340fdbcdddb1b000000000000000000000000000000000000000000000000000000000000000000000000000000000000000000000000000000000000000000000000000084408d88290000000000000000000000002272b955e9828acba482133dd634493ff2aefd4b00000000000000000000000000000000000000000000000000000000000000010000000000000000000000000000000000000000000000008ac7230489e80000000000000000000000000000bd1302ce69e65caa2c85bb686a27437eae00c6fd00000000000000000000000000000000000000000000000000000000",
        "nonce": "0x27",
        "accessList": []
      },
      "additionalContracts": []
    },
    {
      "hash": "0x12832de01579f9f2d12d41c6feb13c9608919ce102cb33986190551fa7656a79",
      "transactionType": "CREATE",
      "contractName": null,
      "contractAddress": "0x85bd8246ea54b20d18a582b4c5400833a04c926e",
      "function": null,
      "arguments": null,
      "transaction": {
        "type": "0x02",
        "from": "0xb3f204a5f3dabef6be51015fd57e307080db6498",
        "to": "0x85bd8246ea54b20d18a582b4c5400833a04c926e",
        "gas": "0x94b1d",
        "value": "0x0",
        "data": "0x84fdcccf00000000000000000000000000000000000000000000000000000000000000a0000000000000000000000000bd1302ce69e65caa2c85bb686a27437eae00c6fd0000000000000000000000000000000000000000000000000000000000000180000000000000000000000000000000000000000000000000000000006321f3480000000000000000000000000000000000000000000000000000000063537710000000000000000000000000bd1302ce69e65caa2c85bb686a27437eae00c6fd0000000000000000000000000000000000000000000000000000000000000000000000000000000000000000000000000000000000000000000000000000006000000000000000000000000000000000000000000000000000000000000000415133e4fd636b3a21333a2cfd561d3028bd8b6b5c2780a58f016f679ff42ff43458cdc60cbbbbf1b34f4ad3c154d3cbca7d256debf63f881631acf340fdbcdddb1b00000000000000000000000000000000000000000000000000000000000000000000000000000000000000000000000000000000000000000000000000004441ce90d70000000000000000000000000000000000000000000000000000000000000014000000000000000000000000bd1302ce69e65caa2c85bb686a27437eae00c6fd00000000000000000000000000000000000000000000000000000000",
        "nonce": "0x28",
        "accessList": []
      },
      "additionalContracts": []
    },
    {
      "hash": "0xc17974d5818059e1345a133045647cd57a6e71a4fef8c65a468bf2d0f10c8bd7",
      "transactionType": "CREATE",
      "contractName": null,
      "contractAddress": "0x85bd8246ea54b20d18a582b4c5400833a04c926e",
      "function": null,
      "arguments": null,
      "transaction": {
        "type": "0x02",
        "from": "0xb3f204a5f3dabef6be51015fd57e307080db6498",
        "to": "0x85bd8246ea54b20d18a582b4c5400833a04c926e",
        "gas": "0xad7ed",
        "value": "0x0",
        "data": "0x84fdcccf00000000000000000000000000000000000000000000000000000000000000a0000000000000000000000000bd1302ce69e65caa2c85bb686a27437eae00c6fd0000000000000000000000000000000000000000000000000000000000000180000000000000000000000000000000000000000000000000000000006321f3480000000000000000000000000000000000000000000000000000000063537710000000000000000000000000bd1302ce69e65caa2c85bb686a27437eae00c6fd0000000000000000000000000000000000000000000000000000000000000000000000000000000000000000000000000000000000000000000000000000006000000000000000000000000000000000000000000000000000000000000000415133e4fd636b3a21333a2cfd561d3028bd8b6b5c2780a58f016f679ff42ff43458cdc60cbbbbf1b34f4ad3c154d3cbca7d256debf63f881631acf340fdbcdddb1b000000000000000000000000000000000000000000000000000000000000000000000000000000000000000000000000000000000000000000000000000084408d88290000000000000000000000002272b955e9828acba482133dd634493ff2aefd4b0000000000000000000000000000000000000000000000000000000000000001000000000000000000000000000000000000000000000001158e460913d00000000000000000000000000000bd1302ce69e65caa2c85bb686a27437eae00c6fd00000000000000000000000000000000000000000000000000000000",
        "nonce": "0x29",
        "accessList": []
      },
      "additionalContracts": []
    },
    {
      "hash": "0x51c09c6dd3e455422ba6a5b78408b0016ab3049889f05a53c6f7dd3d0ef8817f",
      "transactionType": "CREATE",
      "contractName": null,
      "contractAddress": "0x85bd8246ea54b20d18a582b4c5400833a04c926e",
      "function": null,
      "arguments": null,
      "transaction": {
        "type": "0x02",
        "from": "0xb3f204a5f3dabef6be51015fd57e307080db6498",
        "to": "0x85bd8246ea54b20d18a582b4c5400833a04c926e",
        "gas": "0xa3d62",
        "value": "0x0",
        "data": "0x84fdcccf00000000000000000000000000000000000000000000000000000000000000a0000000000000000000000000bd1302ce69e65caa2c85bb686a27437eae00c6fd0000000000000000000000000000000000000000000000000000000000000180000000000000000000000000000000000000000000000000000000006321f3480000000000000000000000000000000000000000000000000000000063537710000000000000000000000000bd1302ce69e65caa2c85bb686a27437eae00c6fd0000000000000000000000000000000000000000000000000000000000000000000000000000000000000000000000000000000000000000000000000000006000000000000000000000000000000000000000000000000000000000000000415133e4fd636b3a21333a2cfd561d3028bd8b6b5c2780a58f016f679ff42ff43458cdc60cbbbbf1b34f4ad3c154d3cbca7d256debf63f881631acf340fdbcdddb1b000000000000000000000000000000000000000000000000000000000000000000000000000000000000000000000000000000000000000000000000000084408d8829000000000000000000000000c3ca3b422047fe48e7eb904743f72845d18167c900000000000000000000000000000000000000000000000000000000000000020000000000000000000000000000000000000000000000000000000000000457000000000000000000000000bd1302ce69e65caa2c85bb686a27437eae00c6fd00000000000000000000000000000000000000000000000000000000",
        "nonce": "0x2a",
        "accessList": []
      },
      "additionalContracts": []
    },
    {
      "hash": "0x7cdb4465dc06c4f1d5462045db200fc90e5476c53b11ff7eceda62fe8026a482",
      "transactionType": "CREATE",
      "contractName": null,
      "contractAddress": "0x85bd8246ea54b20d18a582b4c5400833a04c926e",
      "function": null,
      "arguments": null,
      "transaction": {
        "type": "0x02",
        "from": "0xb3f204a5f3dabef6be51015fd57e307080db6498",
        "to": "0x85bd8246ea54b20d18a582b4c5400833a04c926e",
        "gas": "0xa572e",
        "value": "0x0",
        "data": "0x84fdcccf00000000000000000000000000000000000000000000000000000000000000a0000000000000000000000000bd1302ce69e65caa2c85bb686a27437eae00c6fd0000000000000000000000000000000000000000000000000000000000000180000000000000000000000000000000000000000000000000000000006321f3480000000000000000000000000000000000000000000000000000000063537710000000000000000000000000bd1302ce69e65caa2c85bb686a27437eae00c6fd0000000000000000000000000000000000000000000000000000000000000000000000000000000000000000000000000000000000000000000000000000006000000000000000000000000000000000000000000000000000000000000000415133e4fd636b3a21333a2cfd561d3028bd8b6b5c2780a58f016f679ff42ff43458cdc60cbbbbf1b34f4ad3c154d3cbca7d256debf63f881631acf340fdbcdddb1b000000000000000000000000000000000000000000000000000000000000000000000000000000000000000000000000000000000000000000000000000084408d8829000000000000000000000000c3ca3b422047fe48e7eb904743f72845d18167c9000000000000000000000000000000000000000000000000000000000000000200000000000000000000000000000000000000000000000000000000000008ae000000000000000000000000bd1302ce69e65caa2c85bb686a27437eae00c6fd00000000000000000000000000000000000000000000000000000000",
        "nonce": "0x2b",
        "accessList": []
      },
      "additionalContracts": []
    }
  ],
  "receipts": [
    {
      "transactionHash": "0xfd33ca71b430a4e3b978aff31ea116b1a6f857c4021a9122243feec8a4f0f581",
      "transactionIndex": "0x11",
      "blockHash": "0x157e3ef85527b2d0cacbc6dc69222b996cc1401eacf19fc78969bcef517b7b75",
      "blockNumber": "0x73d526",
      "from": "0xb3f204a5f3dabef6be51015fd57e307080db6498",
      "to": null,
      "cumulativeGasUsed": "0x3b585e",
      "gasUsed": "0xb7823",
      "contractAddress": "0x2272b955e9828acba482133dd634493ff2aefd4b",
      "logs": [
        {
          "address": "0x2272b955e9828acba482133dd634493ff2aefd4b",
          "topics": [
            "0xddf252ad1be2c89b69c2b068fc378daa952ba7f163c4a11628f55a4df523b3ef",
            "0x0000000000000000000000000000000000000000000000000000000000000000",
            "0x0000000000000000000000000000000000000000000000000000000000000539"
          ],
          "data": "0x000000000000000000000000000000000000007e37be2022c0914b2680000000",
          "blockHash": "0x157e3ef85527b2d0cacbc6dc69222b996cc1401eacf19fc78969bcef517b7b75",
          "blockNumber": "0x73d526",
          "transactionHash": "0xfd33ca71b430a4e3b978aff31ea116b1a6f857c4021a9122243feec8a4f0f581",
          "transactionIndex": "0x11",
          "logIndex": "0x14",
          "removed": false
        },
        {
          "address": "0x2272b955e9828acba482133dd634493ff2aefd4b",
          "topics": [
            "0xddf252ad1be2c89b69c2b068fc378daa952ba7f163c4a11628f55a4df523b3ef",
            "0x0000000000000000000000000000000000000000000000000000000000000000",
            "0x0000000000000000000000000000000000000000000000000000000000000063"
          ],
          "data": "0x00000000000000000000000000000000000000000000be951906eba2aa800000",
          "blockHash": "0x157e3ef85527b2d0cacbc6dc69222b996cc1401eacf19fc78969bcef517b7b75",
          "blockNumber": "0x73d526",
          "transactionHash": "0xfd33ca71b430a4e3b978aff31ea116b1a6f857c4021a9122243feec8a4f0f581",
          "transactionIndex": "0x11",
          "logIndex": "0x15",
          "removed": false
        },
        {
          "address": "0x2272b955e9828acba482133dd634493ff2aefd4b",
          "topics": [
            "0xddf252ad1be2c89b69c2b068fc378daa952ba7f163c4a11628f55a4df523b3ef",
            "0x0000000000000000000000000000000000000000000000000000000000000000",
            "0x00000000000000000000000000000000000000000000000000000000000001a5"
          ],
          "data": "0x00000000000000000000000000000000000000000000be951906eba2aa800000",
          "blockHash": "0x157e3ef85527b2d0cacbc6dc69222b996cc1401eacf19fc78969bcef517b7b75",
          "blockNumber": "0x73d526",
          "transactionHash": "0xfd33ca71b430a4e3b978aff31ea116b1a6f857c4021a9122243feec8a4f0f581",
          "transactionIndex": "0x11",
          "logIndex": "0x16",
          "removed": false
        },
        {
          "address": "0x2272b955e9828acba482133dd634493ff2aefd4b",
          "topics": [
            "0xddf252ad1be2c89b69c2b068fc378daa952ba7f163c4a11628f55a4df523b3ef",
            "0x0000000000000000000000000000000000000000000000000000000000000000",
            "0x000000000000000000000000b3f204a5f3dabef6be51015fd57e307080db6498"
          ],
          "data": "0x00000000000000000000000000000000000000000000130ffe755d9958100000",
          "blockHash": "0x157e3ef85527b2d0cacbc6dc69222b996cc1401eacf19fc78969bcef517b7b75",
          "blockNumber": "0x73d526",
          "transactionHash": "0xfd33ca71b430a4e3b978aff31ea116b1a6f857c4021a9122243feec8a4f0f581",
          "transactionIndex": "0x11",
          "logIndex": "0x17",
          "removed": false
        },
        {
          "address": "0x2272b955e9828acba482133dd634493ff2aefd4b",
          "topics": [
            "0xddf252ad1be2c89b69c2b068fc378daa952ba7f163c4a11628f55a4df523b3ef",
            "0x0000000000000000000000000000000000000000000000000000000000000000",
            "0x0000000000000000000000009e13201c6d7c5666a7e93390870006ea0f994c62"
          ],
          "data": "0x000000000000000000000000000000000000000000a56d88b53d95f429900000",
          "blockHash": "0x157e3ef85527b2d0cacbc6dc69222b996cc1401eacf19fc78969bcef517b7b75",
          "blockNumber": "0x73d526",
          "transactionHash": "0xfd33ca71b430a4e3b978aff31ea116b1a6f857c4021a9122243feec8a4f0f581",
          "transactionIndex": "0x11",
          "logIndex": "0x18",
          "removed": false
        }
      ],
      "status": "0x1",
      "logsBloom": "0x00000000000000000000000000000000000000000000000000000000000000000000000000000000000000000001000000000000000000000000000000000000000000000000000000000008000000000000000000000000000000000000000200000000020001000080000000000804000000000004040100000010000000000000000000000000000000000000000000800000004000000000000000000000000000000000000000100040000000000000002000000000800400000000000000000002000000000000000000000000000000000000000000000000000020000000001000000000000000000000000000002000000000000000000000000000",
      "type": "0x2",
      "effectiveGasPrice": "0xef4ab2fa"
    },
    {
      "transactionHash": "0x3a4bded8e268139cb332cf03320637f6a3e9d4d5ecc627187456559ebe9934da",
      "transactionIndex": "0x12",
      "blockHash": "0x157e3ef85527b2d0cacbc6dc69222b996cc1401eacf19fc78969bcef517b7b75",
      "blockNumber": "0x73d526",
      "from": "0xb3f204a5f3dabef6be51015fd57e307080db6498",
      "to": null,
      "cumulativeGasUsed": "0x515eef",
      "gasUsed": "0x160691",
      "contractAddress": "0xc3ca3b422047fe48e7eb904743f72845d18167c9",
      "logs": [
        {
          "address": "0xc3ca3b422047fe48e7eb904743f72845d18167c9",
          "topics": [
            "0xddf252ad1be2c89b69c2b068fc378daa952ba7f163c4a11628f55a4df523b3ef",
            "0x0000000000000000000000000000000000000000000000000000000000000000",
            "0x0000000000000000000000000000000000000000000000000000000000000539",
            "0x0000000000000000000000000000000000000000000000000000000000000929"
          ],
          "data": "0x",
          "blockHash": "0x157e3ef85527b2d0cacbc6dc69222b996cc1401eacf19fc78969bcef517b7b75",
          "blockNumber": "0x73d526",
          "transactionHash": "0x3a4bded8e268139cb332cf03320637f6a3e9d4d5ecc627187456559ebe9934da",
          "transactionIndex": "0x12",
          "logIndex": "0x19",
          "removed": false
        },
        {
          "address": "0xc3ca3b422047fe48e7eb904743f72845d18167c9",
          "topics": [
            "0xddf252ad1be2c89b69c2b068fc378daa952ba7f163c4a11628f55a4df523b3ef",
            "0x0000000000000000000000000000000000000000000000000000000000000000",
            "0x0000000000000000000000000000000000000000000000000000000000000063",
            "0x000000000000000000000000000000000000000000000000000000000000092a"
          ],
          "data": "0x",
          "blockHash": "0x157e3ef85527b2d0cacbc6dc69222b996cc1401eacf19fc78969bcef517b7b75",
          "blockNumber": "0x73d526",
          "transactionHash": "0x3a4bded8e268139cb332cf03320637f6a3e9d4d5ecc627187456559ebe9934da",
          "transactionIndex": "0x12",
          "logIndex": "0x1a",
          "removed": false
        },
        {
          "address": "0xc3ca3b422047fe48e7eb904743f72845d18167c9",
          "topics": [
            "0xddf252ad1be2c89b69c2b068fc378daa952ba7f163c4a11628f55a4df523b3ef",
            "0x0000000000000000000000000000000000000000000000000000000000000000",
            "0x00000000000000000000000000000000000000000000000000000000000001a5",
            "0x000000000000000000000000000000000000000000000000000000000000092b"
          ],
          "data": "0x",
          "blockHash": "0x157e3ef85527b2d0cacbc6dc69222b996cc1401eacf19fc78969bcef517b7b75",
          "blockNumber": "0x73d526",
          "transactionHash": "0x3a4bded8e268139cb332cf03320637f6a3e9d4d5ecc627187456559ebe9934da",
          "transactionIndex": "0x12",
          "logIndex": "0x1b",
          "removed": false
        },
        {
          "address": "0xc3ca3b422047fe48e7eb904743f72845d18167c9",
          "topics": [
            "0xddf252ad1be2c89b69c2b068fc378daa952ba7f163c4a11628f55a4df523b3ef",
            "0x0000000000000000000000000000000000000000000000000000000000000000",
            "0x000000000000000000000000b3f204a5f3dabef6be51015fd57e307080db6498",
            "0x00000000000000000000000000000000000000000000000000000000000002bd"
          ],
          "data": "0x",
          "blockHash": "0x157e3ef85527b2d0cacbc6dc69222b996cc1401eacf19fc78969bcef517b7b75",
          "blockNumber": "0x73d526",
          "transactionHash": "0x3a4bded8e268139cb332cf03320637f6a3e9d4d5ecc627187456559ebe9934da",
          "transactionIndex": "0x12",
          "logIndex": "0x1c",
          "removed": false
        },
        {
          "address": "0xc3ca3b422047fe48e7eb904743f72845d18167c9",
          "topics": [
            "0xddf252ad1be2c89b69c2b068fc378daa952ba7f163c4a11628f55a4df523b3ef",
            "0x0000000000000000000000000000000000000000000000000000000000000000",
            "0x0000000000000000000000009e13201c6d7c5666a7e93390870006ea0f994c62",
            "0x00000000000000000000000000000000000000000000000000000000000002c3"
          ],
          "data": "0x",
          "blockHash": "0x157e3ef85527b2d0cacbc6dc69222b996cc1401eacf19fc78969bcef517b7b75",
          "blockNumber": "0x73d526",
          "transactionHash": "0x3a4bded8e268139cb332cf03320637f6a3e9d4d5ecc627187456559ebe9934da",
          "transactionIndex": "0x12",
          "logIndex": "0x1d",
          "removed": false
        },
        {
          "address": "0xc3ca3b422047fe48e7eb904743f72845d18167c9",
          "topics": [
            "0xddf252ad1be2c89b69c2b068fc378daa952ba7f163c4a11628f55a4df523b3ef",
            "0x0000000000000000000000000000000000000000000000000000000000000000",
            "0x000000000000000000000000b3f204a5f3dabef6be51015fd57e307080db6498",
            "0x0000000000000000000000000000000000000000000000000000000000000457"
          ],
          "data": "0x",
          "blockHash": "0x157e3ef85527b2d0cacbc6dc69222b996cc1401eacf19fc78969bcef517b7b75",
          "blockNumber": "0x73d526",
          "transactionHash": "0x3a4bded8e268139cb332cf03320637f6a3e9d4d5ecc627187456559ebe9934da",
          "transactionIndex": "0x12",
          "logIndex": "0x1e",
          "removed": false
        },
        {
          "address": "0xc3ca3b422047fe48e7eb904743f72845d18167c9",
          "topics": [
            "0xddf252ad1be2c89b69c2b068fc378daa952ba7f163c4a11628f55a4df523b3ef",
            "0x0000000000000000000000000000000000000000000000000000000000000000",
            "0x000000000000000000000000b3f204a5f3dabef6be51015fd57e307080db6498",
            "0x00000000000000000000000000000000000000000000000000000000000008ae"
          ],
          "data": "0x",
          "blockHash": "0x157e3ef85527b2d0cacbc6dc69222b996cc1401eacf19fc78969bcef517b7b75",
          "blockNumber": "0x73d526",
          "transactionHash": "0x3a4bded8e268139cb332cf03320637f6a3e9d4d5ecc627187456559ebe9934da",
          "transactionIndex": "0x12",
          "logIndex": "0x1f",
          "removed": false
        },
        {
          "address": "0xc3ca3b422047fe48e7eb904743f72845d18167c9",
          "topics": [
            "0xddf252ad1be2c89b69c2b068fc378daa952ba7f163c4a11628f55a4df523b3ef",
            "0x0000000000000000000000000000000000000000000000000000000000000000",
            "0x000000000000000000000000b3f204a5f3dabef6be51015fd57e307080db6498",
            "0x0000000000000000000000000000000000000000000000000000000000000d05"
          ],
          "data": "0x",
          "blockHash": "0x157e3ef85527b2d0cacbc6dc69222b996cc1401eacf19fc78969bcef517b7b75",
          "blockNumber": "0x73d526",
          "transactionHash": "0x3a4bded8e268139cb332cf03320637f6a3e9d4d5ecc627187456559ebe9934da",
          "transactionIndex": "0x12",
          "logIndex": "0x20",
          "removed": false
        },
        {
          "address": "0xc3ca3b422047fe48e7eb904743f72845d18167c9",
          "topics": [
            "0xddf252ad1be2c89b69c2b068fc378daa952ba7f163c4a11628f55a4df523b3ef",
            "0x0000000000000000000000000000000000000000000000000000000000000000",
            "0x000000000000000000000000b3f204a5f3dabef6be51015fd57e307080db6498",
            "0x000000000000000000000000000000000000000000000000000000000000115c"
          ],
          "data": "0x",
          "blockHash": "0x157e3ef85527b2d0cacbc6dc69222b996cc1401eacf19fc78969bcef517b7b75",
          "blockNumber": "0x73d526",
          "transactionHash": "0x3a4bded8e268139cb332cf03320637f6a3e9d4d5ecc627187456559ebe9934da",
          "transactionIndex": "0x12",
          "logIndex": "0x21",
          "removed": false
        },
        {
          "address": "0xc3ca3b422047fe48e7eb904743f72845d18167c9",
          "topics": [
            "0xddf252ad1be2c89b69c2b068fc378daa952ba7f163c4a11628f55a4df523b3ef",
            "0x0000000000000000000000000000000000000000000000000000000000000000",
            "0x000000000000000000000000b3f204a5f3dabef6be51015fd57e307080db6498",
            "0x00000000000000000000000000000000000000000000000000000000000015b3"
          ],
          "data": "0x",
          "blockHash": "0x157e3ef85527b2d0cacbc6dc69222b996cc1401eacf19fc78969bcef517b7b75",
          "blockNumber": "0x73d526",
          "transactionHash": "0x3a4bded8e268139cb332cf03320637f6a3e9d4d5ecc627187456559ebe9934da",
          "transactionIndex": "0x12",
          "logIndex": "0x22",
          "removed": false
        }
      ],
      "status": "0x1",
      "logsBloom": "0x00000000000000000000000000000000000200000000000000000000000000000080000000000000000000000001000000000000000000000000000000000000000040000000000000000008000000000000000000001004000000000000000200000000122001000080000000000804000000000404000100000010000000000400008000000000000000000000000000800800005120000000000100000000000082022000800000100040000000000000002001000000800000000000000000000002000002000000000000200000000000001000024000000400000020000000001000000001000000000200000000002000000000000000020000000000",
      "type": "0x2",
      "effectiveGasPrice": "0xef4ab2fa"
    },
    {
      "transactionHash": "0xef6125e66946b17393ffd671651995797095cb78022de8a6174d7198ebded686",
      "transactionIndex": "0x13",
      "blockHash": "0x157e3ef85527b2d0cacbc6dc69222b996cc1401eacf19fc78969bcef517b7b75",
      "blockNumber": "0x73d526",
      "from": "0xb3f204a5f3dabef6be51015fd57e307080db6498",
      "to": "0x2272b955e9828acba482133dd634493ff2aefd4b",
      "cumulativeGasUsed": "0x5213cf",
      "gasUsed": "0xb4e0",
      "contractAddress": null,
      "logs": [
        {
          "address": "0x2272b955e9828acba482133dd634493ff2aefd4b",
          "topics": [
            "0x8c5be1e5ebec7d5bd14f71427d1e84f3dd0314c0f7b2291e5b200ac8c7c3b925",
            "0x000000000000000000000000b3f204a5f3dabef6be51015fd57e307080db6498",
            "0x00000000000000000000000085bd8246ea54b20d18a582b4c5400833a04c926e"
          ],
          "data": "0x0000000000000000000000000000000000000000244d0449a9e7e1a728080000",
          "blockHash": "0x157e3ef85527b2d0cacbc6dc69222b996cc1401eacf19fc78969bcef517b7b75",
          "blockNumber": "0x73d526",
          "transactionHash": "0xef6125e66946b17393ffd671651995797095cb78022de8a6174d7198ebded686",
          "transactionIndex": "0x13",
          "logIndex": "0x23",
          "removed": false
        }
      ],
      "status": "0x1",
      "logsBloom": "0x00000000000000000000000400000000000000000000000000000000000000000000000000000020000000000000004000000000000000000000000000200000000000000000000000000000000000000000000000000000000000000000000200000000000000000000000000000000000000000000040100000000000000000000000000000000000000000000000000000000000000000000000000000000020000000000000000100000000000000000000000000000000400000000000000000000000000000000000000000000000000000000000000000000000000000010000000000000000000000000000000002000000000000000000000000000",
      "type": "0x2",
      "effectiveGasPrice": "0xef4ab2fa"
    },
    {
      "transactionHash": "0x3a810a30fc90d9a0e707d991c16be999a605af8db24c053d4a53b82e3eafb630",
      "transactionIndex": "0x14",
      "blockHash": "0x157e3ef85527b2d0cacbc6dc69222b996cc1401eacf19fc78969bcef517b7b75",
      "blockNumber": "0x73d526",
      "from": "0xb3f204a5f3dabef6be51015fd57e307080db6498",
      "to": "0xc3ca3b422047fe48e7eb904743f72845d18167c9",
      "cumulativeGasUsed": "0x52d22a",
      "gasUsed": "0xbe5b",
      "contractAddress": null,
      "logs": [
        {
          "address": "0xc3ca3b422047fe48e7eb904743f72845d18167c9",
          "topics": [
            "0x8c5be1e5ebec7d5bd14f71427d1e84f3dd0314c0f7b2291e5b200ac8c7c3b925",
            "0x000000000000000000000000b3f204a5f3dabef6be51015fd57e307080db6498",
            "0x00000000000000000000000085bd8246ea54b20d18a582b4c5400833a04c926e",
            "0x0000000000000000000000000000000000000000000000000000000000000457"
          ],
          "data": "0x",
          "blockHash": "0x157e3ef85527b2d0cacbc6dc69222b996cc1401eacf19fc78969bcef517b7b75",
          "blockNumber": "0x73d526",
          "transactionHash": "0x3a810a30fc90d9a0e707d991c16be999a605af8db24c053d4a53b82e3eafb630",
          "transactionIndex": "0x14",
          "logIndex": "0x24",
          "removed": false
        }
      ],
      "status": "0x1",
      "logsBloom": "0x00000000000000000000000400000000000000000000000000000000000000000000000000000020000000000000004000000000000000000000000000200000000000000000000000000000000000000000000000000000000000000000000200000000000000000000000000000000000000000400000100000000000000000000000000000000000000000000000000000000000020000000000000000000020000000000000000100000000000000000000000000000000000000000000000000000000002000000000000200000000000000000000000000000000000000010000000000001000000000200000000000000000000000000000000000000",
      "type": "0x2",
      "effectiveGasPrice": "0xef4ab2fa"
    },
    {
      "transactionHash": "0x5d25baa82bc981d2548a3aec1028478b4ca93b38dca5698b6b214a453a4e6527",
      "transactionIndex": "0x15",
      "blockHash": "0x157e3ef85527b2d0cacbc6dc69222b996cc1401eacf19fc78969bcef517b7b75",
      "blockNumber": "0x73d526",
      "from": "0xb3f204a5f3dabef6be51015fd57e307080db6498",
      "to": "0xc3ca3b422047fe48e7eb904743f72845d18167c9",
      "cumulativeGasUsed": "0x539085",
      "gasUsed": "0xbe5b",
      "contractAddress": null,
      "logs": [
        {
          "address": "0xc3ca3b422047fe48e7eb904743f72845d18167c9",
          "topics": [
            "0x8c5be1e5ebec7d5bd14f71427d1e84f3dd0314c0f7b2291e5b200ac8c7c3b925",
            "0x000000000000000000000000b3f204a5f3dabef6be51015fd57e307080db6498",
            "0x00000000000000000000000085bd8246ea54b20d18a582b4c5400833a04c926e",
            "0x00000000000000000000000000000000000000000000000000000000000008ae"
          ],
          "data": "0x",
          "blockHash": "0x157e3ef85527b2d0cacbc6dc69222b996cc1401eacf19fc78969bcef517b7b75",
          "blockNumber": "0x73d526",
          "transactionHash": "0x5d25baa82bc981d2548a3aec1028478b4ca93b38dca5698b6b214a453a4e6527",
          "transactionIndex": "0x15",
          "logIndex": "0x25",
          "removed": false
        }
      ],
      "status": "0x1",
      "logsBloom": "0x00000000000000000000000400000000000000000000000000000000000000000000000000000020000000000000004000000000000000000000000000200000000000000000000000000000000000000000000000000000000000000000000200000000002000000000000000000000000000000400000100000000000000000000000000000000000000000000000000000000000000000000000000000000020000002000000000100000000000000000000000000000000000000000000000000000000002000000000000000000000000000000020000000000000000000010000000000000000000000200000000000000000000000000000000000000",
      "type": "0x2",
      "effectiveGasPrice": "0xef4ab2fa"
    },
    {
      "transactionHash": "0xcb38b18951fd49a61b721caa460f0ebce950f10669f35f0233730f4217be91eb",
      "transactionIndex": "0x16",
      "blockHash": "0x157e3ef85527b2d0cacbc6dc69222b996cc1401eacf19fc78969bcef517b7b75",
      "blockNumber": "0x73d526",
      "from": "0xb3f204a5f3dabef6be51015fd57e307080db6498",
      "to": "0xc3ca3b422047fe48e7eb904743f72845d18167c9",
      "cumulativeGasUsed": "0x544ee0",
      "gasUsed": "0xbe5b",
      "contractAddress": null,
      "logs": [
        {
          "address": "0xc3ca3b422047fe48e7eb904743f72845d18167c9",
          "topics": [
            "0x8c5be1e5ebec7d5bd14f71427d1e84f3dd0314c0f7b2291e5b200ac8c7c3b925",
            "0x000000000000000000000000b3f204a5f3dabef6be51015fd57e307080db6498",
            "0x00000000000000000000000085bd8246ea54b20d18a582b4c5400833a04c926e",
            "0x0000000000000000000000000000000000000000000000000000000000000d05"
          ],
          "data": "0x",
          "blockHash": "0x157e3ef85527b2d0cacbc6dc69222b996cc1401eacf19fc78969bcef517b7b75",
          "blockNumber": "0x73d526",
          "transactionHash": "0xcb38b18951fd49a61b721caa460f0ebce950f10669f35f0233730f4217be91eb",
          "transactionIndex": "0x16",
          "logIndex": "0x26",
          "removed": false
        }
      ],
      "status": "0x1",
      "logsBloom": "0x00000000000000000000000400000000000000000000000000000000000000000000000000000020000000000000004000000000000000000000000000200000000000000000000000000000000000000000000000000000000000000000000200000000000000000000000000000000000000000400000100000000000000000000000000000000000000000000000000000000000000000000000100000000020002000000800000100000000000000000000000000000000000000000000000000000000002000000000000000000000000000000000000000000000000000010000000000000000000000200000000000000000000000000000000000000",
      "type": "0x2",
      "effectiveGasPrice": "0xef4ab2fa"
    },
    {
      "transactionHash": "0xd3f3e197808ed40c2dcfa4f046042400c184ab13d5e08a1a5b481bdd3c5573e7",
      "transactionIndex": "0x17",
      "blockHash": "0x157e3ef85527b2d0cacbc6dc69222b996cc1401eacf19fc78969bcef517b7b75",
      "blockNumber": "0x73d526",
      "from": "0xb3f204a5f3dabef6be51015fd57e307080db6498",
      "to": "0x85bd8246ea54b20d18a582b4c5400833a04c926e",
      "cumulativeGasUsed": "0x5695a9",
      "gasUsed": "0x246c9",
      "contractAddress": null,
      "logs": [
        {
          "address": "0x2272b955e9828acba482133dd634493ff2aefd4b",
          "topics": [
            "0x8c5be1e5ebec7d5bd14f71427d1e84f3dd0314c0f7b2291e5b200ac8c7c3b925",
            "0x000000000000000000000000b3f204a5f3dabef6be51015fd57e307080db6498",
            "0x00000000000000000000000085bd8246ea54b20d18a582b4c5400833a04c926e"
          ],
          "data": "0x0000000000000000000000000000000000000000244d04498e26743fd9400000",
          "blockHash": "0x157e3ef85527b2d0cacbc6dc69222b996cc1401eacf19fc78969bcef517b7b75",
          "blockNumber": "0x73d526",
          "transactionHash": "0xd3f3e197808ed40c2dcfa4f046042400c184ab13d5e08a1a5b481bdd3c5573e7",
          "transactionIndex": "0x17",
          "logIndex": "0x27",
          "removed": false
        },
        {
          "address": "0x2272b955e9828acba482133dd634493ff2aefd4b",
          "topics": [
            "0xddf252ad1be2c89b69c2b068fc378daa952ba7f163c4a11628f55a4df523b3ef",
            "0x000000000000000000000000b3f204a5f3dabef6be51015fd57e307080db6498",
            "0x00000000000000000000000085bd8246ea54b20d18a582b4c5400833a04c926e"
          ],
          "data": "0x0000000000000000000000000000000000000000000000001bc16d674ec80000",
          "blockHash": "0x157e3ef85527b2d0cacbc6dc69222b996cc1401eacf19fc78969bcef517b7b75",
          "blockNumber": "0x73d526",
          "transactionHash": "0xd3f3e197808ed40c2dcfa4f046042400c184ab13d5e08a1a5b481bdd3c5573e7",
          "transactionIndex": "0x17",
          "logIndex": "0x28",
          "removed": false
        },
        {
          "address": "0x85bd8246ea54b20d18a582b4c5400833a04c926e",
          "topics": [
            "0xddf252ad1be2c89b69c2b068fc378daa952ba7f163c4a11628f55a4df523b3ef",
            "0x0000000000000000000000000000000000000000000000000000000000000000",
            "0x000000000000000000000000b3f204a5f3dabef6be51015fd57e307080db6498",
            "0x0000000000000000000000000000000000000000000000000000000000000014"
          ],
          "data": "0x",
          "blockHash": "0x157e3ef85527b2d0cacbc6dc69222b996cc1401eacf19fc78969bcef517b7b75",
          "blockNumber": "0x73d526",
          "transactionHash": "0xd3f3e197808ed40c2dcfa4f046042400c184ab13d5e08a1a5b481bdd3c5573e7",
          "transactionIndex": "0x17",
          "logIndex": "0x29",
          "removed": false
        },
        {
          "address": "0x85bd8246ea54b20d18a582b4c5400833a04c926e",
          "topics": [
            "0x470b22e243b5d7561e39d0d9181804ab4a16b4d2267cec2af8fe1009770ae00b"
          ],
          "data": "0x0000000000000000000000002272b955e9828acba482133dd634493ff2aefd4b0000000000000000000000000000000000000000000000001bc16d674ec80000000000000000000000000000b3f204a5f3dabef6be51015fd57e307080db6498",
          "blockHash": "0x157e3ef85527b2d0cacbc6dc69222b996cc1401eacf19fc78969bcef517b7b75",
          "blockNumber": "0x73d526",
          "transactionHash": "0xd3f3e197808ed40c2dcfa4f046042400c184ab13d5e08a1a5b481bdd3c5573e7",
          "transactionIndex": "0x17",
          "logIndex": "0x2a",
          "removed": false
        }
      ],
      "status": "0x1",
      "logsBloom": "0x00000000000000000000000400000000000000000000000000000000000000000000000000000020000000000002004800002000000000000000000000200000000000000000000000008008000000000000000000000000000000000000000200000000020000000000000000000800000000000000040100000010000010000000000000000000000000000000000000000000000400000000000000000080020000020000000020100000000000000000000000000000000400000000000000000002000000000000000000000000000000000000000000000000000020000010000000000000000000000000000000002000000000000000000000000000",
      "type": "0x2",
      "effectiveGasPrice": "0xef4ab2fa"
    },
    {
      "transactionHash": "0xdbea176c52fc725036d283177d9e498c061c30511b1b9d9474d33fe8ba95f1ed",
      "transactionIndex": "0x18",
      "blockHash": "0x157e3ef85527b2d0cacbc6dc69222b996cc1401eacf19fc78969bcef517b7b75",
      "blockNumber": "0x73d526",
      "from": "0xb3f204a5f3dabef6be51015fd57e307080db6498",
      "to": "0x85bd8246ea54b20d18a582b4c5400833a04c926e",
      "cumulativeGasUsed": "0x5dffaf",
      "gasUsed": "0x76a06",
      "contractAddress": null,
      "logs": [
        {
          "address": "0x85bd8246ea54b20d18a582b4c5400833a04c926e",
          "topics": [
            "0x3d9186d0e671be69e388b8298fa33d70c46166ab3e74adaac130b1cf78473923"
          ],
          "data": "0x",
          "blockHash": "0x157e3ef85527b2d0cacbc6dc69222b996cc1401eacf19fc78969bcef517b7b75",
          "blockNumber": "0x73d526",
          "transactionHash": "0xdbea176c52fc725036d283177d9e498c061c30511b1b9d9474d33fe8ba95f1ed",
          "transactionIndex": "0x18",
          "logIndex": "0x2b",
          "removed": false
        },
        {
          "address": "0x85bd8246ea54b20d18a582b4c5400833a04c926e",
          "topics": [
            "0xddf252ad1be2c89b69c2b068fc378daa952ba7f163c4a11628f55a4df523b3ef",
            "0x0000000000000000000000000000000000000000000000000000000000000000",
            "0x000000000000000000000000bd1302ce69e65caa2c85bb686a27437eae00c6fd",
            "0x0000000000000000000000000000000000000000000000000000000000000016"
          ],
          "data": "0x",
          "blockHash": "0x157e3ef85527b2d0cacbc6dc69222b996cc1401eacf19fc78969bcef517b7b75",
          "blockNumber": "0x73d526",
          "transactionHash": "0xdbea176c52fc725036d283177d9e498c061c30511b1b9d9474d33fe8ba95f1ed",
          "transactionIndex": "0x18",
          "logIndex": "0x2c",
          "removed": false
        },
        {
          "address": "0x85bd8246ea54b20d18a582b4c5400833a04c926e",
          "topics": [
            "0x6d43370467472a1fef609a11c45fd0a4ebba426caa906b5b7ac66cb477118adb"
          ],
          "data": "0x000000000000000000000000b3f204a5f3dabef6be51015fd57e307080db6498000000000000000000000000bd1302ce69e65caa2c85bb686a27437eae00c6fd0000000000000000000000000000000000000000000000000000000000000016",
          "blockHash": "0x157e3ef85527b2d0cacbc6dc69222b996cc1401eacf19fc78969bcef517b7b75",
          "blockNumber": "0x73d526",
          "transactionHash": "0xdbea176c52fc725036d283177d9e498c061c30511b1b9d9474d33fe8ba95f1ed",
          "transactionIndex": "0x18",
          "logIndex": "0x2d",
          "removed": false
        }
      ],
      "status": "0x1",
      "logsBloom": "0x00000000000000002000000000000000000000000000000000000000000000000000200000000000000000000000000800000000000000000000000000000080000000000000000800000008000000000000000000000100000000000000000000000000020000000000000000000800200000000000000000000010000010000000000000001000000080000000000000000000020000000000000000000000000000020000000000000000000000000000000000000000000000000000000800000002000000000000000000000000000000000000000000000000000020000000200000000000000000000000000000000000000000000008000000000000",
      "type": "0x2",
      "effectiveGasPrice": "0xef4ab2fa"
    },
    {
      "transactionHash": "0x12832de01579f9f2d12d41c6feb13c9608919ce102cb33986190551fa7656a79",
      "transactionIndex": "0x8",
      "blockHash": "0x9819748b80dfad48054ce51ecae692f9da32847c86cea1b66776df8b9dab7153",
      "blockNumber": "0x73d527",
      "from": "0xb3f204a5f3dabef6be51015fd57e307080db6498",
      "to": "0x85bd8246ea54b20d18a582b4c5400833a04c926e",
      "cumulativeGasUsed": "0xf31b8",
      "gasUsed": "0x6ba70",
      "contractAddress": null,
      "logs": [
        {
          "address": "0x85bd8246ea54b20d18a582b4c5400833a04c926e",
          "topics": [
            "0x3d9186d0e671be69e388b8298fa33d70c46166ab3e74adaac130b1cf78473923"
          ],
          "data": "0x",
          "blockHash": "0x9819748b80dfad48054ce51ecae692f9da32847c86cea1b66776df8b9dab7153",
          "blockNumber": "0x73d527",
          "transactionHash": "0x12832de01579f9f2d12d41c6feb13c9608919ce102cb33986190551fa7656a79",
          "transactionIndex": "0x8",
          "logIndex": "0x9",
          "removed": false
        },
        {
          "address": "0x85bd8246ea54b20d18a582b4c5400833a04c926e",
          "topics": [
            "0xddf252ad1be2c89b69c2b068fc378daa952ba7f163c4a11628f55a4df523b3ef",
            "0x0000000000000000000000000000000000000000000000000000000000000000",
            "0x000000000000000000000000bd1302ce69e65caa2c85bb686a27437eae00c6fd",
            "0x0000000000000000000000000000000000000000000000000000000000000018"
          ],
          "data": "0x",
          "blockHash": "0x9819748b80dfad48054ce51ecae692f9da32847c86cea1b66776df8b9dab7153",
          "blockNumber": "0x73d527",
          "transactionHash": "0x12832de01579f9f2d12d41c6feb13c9608919ce102cb33986190551fa7656a79",
          "transactionIndex": "0x8",
          "logIndex": "0xa",
          "removed": false
        },
        {
          "address": "0x85bd8246ea54b20d18a582b4c5400833a04c926e",
          "topics": [
            "0x6d43370467472a1fef609a11c45fd0a4ebba426caa906b5b7ac66cb477118adb"
          ],
          "data": "0x000000000000000000000000b3f204a5f3dabef6be51015fd57e307080db6498000000000000000000000000bd1302ce69e65caa2c85bb686a27437eae00c6fd0000000000000000000000000000000000000000000000000000000000000018",
          "blockHash": "0x9819748b80dfad48054ce51ecae692f9da32847c86cea1b66776df8b9dab7153",
          "blockNumber": "0x73d527",
          "transactionHash": "0x12832de01579f9f2d12d41c6feb13c9608919ce102cb33986190551fa7656a79",
          "transactionIndex": "0x8",
          "logIndex": "0xb",
          "removed": false
        }
      ],
      "status": "0x1",
      "logsBloom": "0x00000000000000002000000000000000000000000000000000000000000000000000200000000000000000000000000800000000000000000000000000000080000000000000000000000008000000000040000000000100000000000000000000000000020000000000000000000800000000000000000000000010000010000000000000001000000080000000000000000000020000000000000000000000000000020000000000000000000000000000000000000000000000000000000800100002000000000000000000000000000000000000000020000000000020000000200000000000000000000000000000000000000000000000000000000000",
      "type": "0x2",
      "effectiveGasPrice": "0xef4ab2fa"
    },
    {
      "transactionHash": "0xc17974d5818059e1345a133045647cd57a6e71a4fef8c65a468bf2d0f10c8bd7",
      "transactionIndex": "0x9",
      "blockHash": "0x9819748b80dfad48054ce51ecae692f9da32847c86cea1b66776df8b9dab7153",
      "blockNumber": "0x73d527",
      "from": "0xb3f204a5f3dabef6be51015fd57e307080db6498",
      "to": "0x85bd8246ea54b20d18a582b4c5400833a04c926e",
      "cumulativeGasUsed": "0x169bca",
      "gasUsed": "0x76a12",
      "contractAddress": null,
      "logs": [
        {
          "address": "0x85bd8246ea54b20d18a582b4c5400833a04c926e",
          "topics": [
            "0x3d9186d0e671be69e388b8298fa33d70c46166ab3e74adaac130b1cf78473923"
          ],
          "data": "0x",
          "blockHash": "0x9819748b80dfad48054ce51ecae692f9da32847c86cea1b66776df8b9dab7153",
          "blockNumber": "0x73d527",
          "transactionHash": "0xc17974d5818059e1345a133045647cd57a6e71a4fef8c65a468bf2d0f10c8bd7",
          "transactionIndex": "0x9",
          "logIndex": "0xc",
          "removed": false
        },
        {
          "address": "0x85bd8246ea54b20d18a582b4c5400833a04c926e",
          "topics": [
            "0xddf252ad1be2c89b69c2b068fc378daa952ba7f163c4a11628f55a4df523b3ef",
            "0x0000000000000000000000000000000000000000000000000000000000000000",
            "0x000000000000000000000000bd1302ce69e65caa2c85bb686a27437eae00c6fd",
            "0x000000000000000000000000000000000000000000000000000000000000001a"
          ],
          "data": "0x",
          "blockHash": "0x9819748b80dfad48054ce51ecae692f9da32847c86cea1b66776df8b9dab7153",
          "blockNumber": "0x73d527",
          "transactionHash": "0xc17974d5818059e1345a133045647cd57a6e71a4fef8c65a468bf2d0f10c8bd7",
          "transactionIndex": "0x9",
          "logIndex": "0xd",
          "removed": false
        },
        {
          "address": "0x85bd8246ea54b20d18a582b4c5400833a04c926e",
          "topics": [
            "0x6d43370467472a1fef609a11c45fd0a4ebba426caa906b5b7ac66cb477118adb"
          ],
          "data": "0x000000000000000000000000b3f204a5f3dabef6be51015fd57e307080db6498000000000000000000000000bd1302ce69e65caa2c85bb686a27437eae00c6fd000000000000000000000000000000000000000000000000000000000000001a",
          "blockHash": "0x9819748b80dfad48054ce51ecae692f9da32847c86cea1b66776df8b9dab7153",
          "blockNumber": "0x73d527",
          "transactionHash": "0xc17974d5818059e1345a133045647cd57a6e71a4fef8c65a468bf2d0f10c8bd7",
          "transactionIndex": "0x9",
          "logIndex": "0xe",
          "removed": false
        }
      ],
      "status": "0x1",
      "logsBloom": "0x00000000000000002000000000000000000000000000000000000000000000000000200000000000000000000000000800000000000000000000000000000080000000000000000000000008000000001000000000000100000000001000000000000000020000000000000000000800000000000000000000000010000010000000000000001000000080000000000000000000020000000000000000000000000000020000000000000000000000000000000000000000000000000000000800000002000000000000000000000000000000000000000000000000000020000000200000000000000000000000000000000000000004000000000000000000",
      "type": "0x2",
      "effectiveGasPrice": "0xef4ab2fa"
    },
    {
      "transactionHash": "0x51c09c6dd3e455422ba6a5b78408b0016ab3049889f05a53c6f7dd3d0ef8817f",
      "transactionIndex": "0xa",
      "blockHash": "0x9819748b80dfad48054ce51ecae692f9da32847c86cea1b66776df8b9dab7153",
      "blockNumber": "0x73d527",
      "from": "0xb3f204a5f3dabef6be51015fd57e307080db6498",
      "to": "0x85bd8246ea54b20d18a582b4c5400833a04c926e",
      "cumulativeGasUsed": "0x1e05a0",
      "gasUsed": "0x769d6",
      "contractAddress": null,
      "logs": [
        {
          "address": "0x85bd8246ea54b20d18a582b4c5400833a04c926e",
          "topics": [
            "0x3d9186d0e671be69e388b8298fa33d70c46166ab3e74adaac130b1cf78473923"
          ],
          "data": "0x",
          "blockHash": "0x9819748b80dfad48054ce51ecae692f9da32847c86cea1b66776df8b9dab7153",
          "blockNumber": "0x73d527",
          "transactionHash": "0x51c09c6dd3e455422ba6a5b78408b0016ab3049889f05a53c6f7dd3d0ef8817f",
          "transactionIndex": "0xa",
          "logIndex": "0xf",
          "removed": false
        },
        {
          "address": "0x85bd8246ea54b20d18a582b4c5400833a04c926e",
          "topics": [
            "0xddf252ad1be2c89b69c2b068fc378daa952ba7f163c4a11628f55a4df523b3ef",
            "0x0000000000000000000000000000000000000000000000000000000000000000",
            "0x000000000000000000000000bd1302ce69e65caa2c85bb686a27437eae00c6fd",
            "0x000000000000000000000000000000000000000000000000000000000000001c"
          ],
          "data": "0x",
          "blockHash": "0x9819748b80dfad48054ce51ecae692f9da32847c86cea1b66776df8b9dab7153",
          "blockNumber": "0x73d527",
          "transactionHash": "0x51c09c6dd3e455422ba6a5b78408b0016ab3049889f05a53c6f7dd3d0ef8817f",
          "transactionIndex": "0xa",
          "logIndex": "0x10",
          "removed": false
        },
        {
          "address": "0x85bd8246ea54b20d18a582b4c5400833a04c926e",
          "topics": [
            "0x6d43370467472a1fef609a11c45fd0a4ebba426caa906b5b7ac66cb477118adb"
          ],
          "data": "0x000000000000000000000000b3f204a5f3dabef6be51015fd57e307080db6498000000000000000000000000bd1302ce69e65caa2c85bb686a27437eae00c6fd000000000000000000000000000000000000000000000000000000000000001c",
          "blockHash": "0x9819748b80dfad48054ce51ecae692f9da32847c86cea1b66776df8b9dab7153",
          "blockNumber": "0x73d527",
          "transactionHash": "0x51c09c6dd3e455422ba6a5b78408b0016ab3049889f05a53c6f7dd3d0ef8817f",
          "transactionIndex": "0xa",
          "logIndex": "0x11",
          "removed": false
        }
      ],
      "status": "0x1",
      "logsBloom": "0x00000000000000002000000000000000000000000000000000000000000000000000200000000000000000000000000800000000000000200000000000000080000000000000000000000008000000000000000000000100000000000000000000000000020000000000000000000800000000000000000000000010000010000000000000001000000080000000000200000000020000000000000000000000000000020000000000000002000000000000000000000000000000000000000800000002000000000000000000000000000000000000000000000000000020000000200000000000000000000000000000000000000000000000000000000000",
      "type": "0x2",
      "effectiveGasPrice": "0xef4ab2fa"
    },
    {
      "transactionHash": "0x7cdb4465dc06c4f1d5462045db200fc90e5476c53b11ff7eceda62fe8026a482",
      "transactionIndex": "0xb",
      "blockHash": "0x9819748b80dfad48054ce51ecae692f9da32847c86cea1b66776df8b9dab7153",
      "blockNumber": "0x73d527",
      "from": "0xb3f204a5f3dabef6be51015fd57e307080db6498",
      "to": "0x85bd8246ea54b20d18a582b4c5400833a04c926e",
      "cumulativeGasUsed": "0x2517aa",
      "gasUsed": "0x7120a",
      "contractAddress": null,
      "logs": [
        {
          "address": "0x85bd8246ea54b20d18a582b4c5400833a04c926e",
          "topics": [
            "0x3d9186d0e671be69e388b8298fa33d70c46166ab3e74adaac130b1cf78473923"
          ],
          "data": "0x",
          "blockHash": "0x9819748b80dfad48054ce51ecae692f9da32847c86cea1b66776df8b9dab7153",
          "blockNumber": "0x73d527",
          "transactionHash": "0x7cdb4465dc06c4f1d5462045db200fc90e5476c53b11ff7eceda62fe8026a482",
          "transactionIndex": "0xb",
          "logIndex": "0x12",
          "removed": false
        },
        {
          "address": "0x85bd8246ea54b20d18a582b4c5400833a04c926e",
          "topics": [
            "0xddf252ad1be2c89b69c2b068fc378daa952ba7f163c4a11628f55a4df523b3ef",
            "0x0000000000000000000000000000000000000000000000000000000000000000",
            "0x000000000000000000000000bd1302ce69e65caa2c85bb686a27437eae00c6fd",
            "0x000000000000000000000000000000000000000000000000000000000000001e"
          ],
          "data": "0x",
          "blockHash": "0x9819748b80dfad48054ce51ecae692f9da32847c86cea1b66776df8b9dab7153",
          "blockNumber": "0x73d527",
          "transactionHash": "0x7cdb4465dc06c4f1d5462045db200fc90e5476c53b11ff7eceda62fe8026a482",
          "transactionIndex": "0xb",
          "logIndex": "0x13",
          "removed": false
        },
        {
          "address": "0x85bd8246ea54b20d18a582b4c5400833a04c926e",
          "topics": [
            "0x6d43370467472a1fef609a11c45fd0a4ebba426caa906b5b7ac66cb477118adb"
          ],
          "data": "0x000000000000000000000000b3f204a5f3dabef6be51015fd57e307080db6498000000000000000000000000bd1302ce69e65caa2c85bb686a27437eae00c6fd000000000000000000000000000000000000000000000000000000000000001e",
          "blockHash": "0x9819748b80dfad48054ce51ecae692f9da32847c86cea1b66776df8b9dab7153",
          "blockNumber": "0x73d527",
          "transactionHash": "0x7cdb4465dc06c4f1d5462045db200fc90e5476c53b11ff7eceda62fe8026a482",
          "transactionIndex": "0xb",
          "logIndex": "0x14",
          "removed": false
        }
      ],
      "status": "0x1",
      "logsBloom": "0x00000000000000002000000000000000000000000000000000000000000000000000200000000000000000000400000800000000000000000000000000000080000000000000008000000008000000000000000000000100000000000000000000000000020000000000000000000800000000000000000000000010000010000000000000001000000080000000000000000000020000000000000000000000000000020000000000000000000000000000000000000000000000000000000800000002000000000000000000000000000000000000000000000000000020000000200000000000080000000000000000000000000000000000000000000000",
      "type": "0x2",
      "effectiveGasPrice": "0xef4ab2fa"
    }
  ],
  "libraries": [],
  "pending": [],
  "path": "/home/parseb/Desktop/promise.monster/foundry/broadcast/PMpopulate.sol/5/run-latest.json",
  "returns": {},
  "timestamp": 1663169416,
  "commit": "447011b"
}